{
  "_format": "hh3-artifact-1",
  "contractName": "MemoryMasterEntry",
  "sourceName": "contracts/MemoryMasterEntry.sol",
  "abi": [
    {
      "inputs": [
        {
          "internalType": "address",
          "name": "_usdtToken",
          "type": "address"
        },
        {
          "internalType": "uint256",
          "name": "_entryFee",
          "type": "uint256"
        }
      ],
      "stateMutability": "nonpayable",
      "type": "constructor"
    },
    {
      "inputs": [],
      "name": "AlreadyPaid",
      "type": "error"
    },
    {
      "inputs": [
        {
          "internalType": "uint256",
          "name": "required",
          "type": "uint256"
        },
        {
          "internalType": "uint256",
          "name": "actual",
          "type": "uint256"
        }
      ],
      "name": "InsufficientAllowance",
      "type": "error"
    },
    {
      "inputs": [],
      "name": "NoFundsToWithdraw",
      "type": "error"
    },
    {
      "inputs": [],
      "name": "NotOwner",
      "type": "error"
    },
    {
      "inputs": [],
      "name": "TooSoonToRecord",
      "type": "error"
    },
    {
      "inputs": [],
      "name": "TransferFailed",
      "type": "error"
    },
    {
      "inputs": [],
      "name": "ZeroAddress",
      "type": "error"
    },
    {
      "anonymous": false,
      "inputs": [
        {
          "indexed": true,
          "internalType": "address",
          "name": "player",
          "type": "address"
        },
        {
          "indexed": false,
          "internalType": "uint256",
          "name": "timestamp",
          "type": "uint256"
        }
      ],
      "name": "EntryConsumed",
      "type": "event"
    },
    {
      "anonymous": false,
      "inputs": [
        {
          "indexed": false,
          "internalType": "uint256",
          "name": "oldFee",
          "type": "uint256"
        },
        {
          "indexed": false,
          "internalType": "uint256",
          "name": "newFee",
          "type": "uint256"
        }
      ],
      "name": "EntryFeeUpdated",
      "type": "event"
    },
    {
      "anonymous": false,
      "inputs": [
        {
          "indexed": true,
          "internalType": "address",
          "name": "player",
          "type": "address"
        },
        {
          "indexed": false,
          "internalType": "uint256",
          "name": "amount",
          "type": "uint256"
        },
        {
          "indexed": false,
          "internalType": "uint256",
          "name": "timestamp",
          "type": "uint256"
        }
      ],
      "name": "EntryPaid",
      "type": "event"
    },
    {
      "anonymous": false,
      "inputs": [
        {
          "indexed": true,
          "internalType": "address",
          "name": "owner",
          "type": "address"
        },
        {
          "indexed": false,
          "internalType": "uint256",
          "name": "amount",
          "type": "uint256"
        },
        {
          "indexed": false,
          "internalType": "uint256",
          "name": "timestamp",
          "type": "uint256"
        }
      ],
      "name": "FundsWithdrawn",
      "type": "event"
    },
    {
      "anonymous": false,
      "inputs": [
        {
          "indexed": true,
          "internalType": "address",
          "name": "player",
          "type": "address"
        },
        {
          "indexed": false,
          "internalType": "uint256",
          "name": "sessionNumber",
          "type": "uint256"
        },
        {
          "indexed": false,
          "internalType": "uint256",
          "name": "totalSessionsAllTime",
          "type": "uint256"
        },
        {
          "indexed": false,
          "internalType": "uint256",
          "name": "timestamp",
          "type": "uint256"
        }
      ],
      "name": "GameSessionRecorded",
      "type": "event"
    },
    {
      "inputs": [
        {
          "internalType": "address",
          "name": "player",
          "type": "address"
        }
      ],
      "name": "canPlay",
      "outputs": [
        {
          "internalType": "bool",
          "name": "",
          "type": "bool"
        }
      ],
      "stateMutability": "view",
      "type": "function"
    },
    {
      "inputs": [
        {
          "internalType": "address",
          "name": "player",
          "type": "address"
        }
      ],
      "name": "consumeEntry",
      "outputs": [],
      "stateMutability": "nonpayable",
      "type": "function"
    },
    {
      "inputs": [],
      "name": "entryFee",
      "outputs": [
        {
          "internalType": "uint256",
          "name": "",
          "type": "uint256"
        }
      ],
      "stateMutability": "view",
      "type": "function"
    },
    {
      "inputs": [
        {
          "internalType": "address",
          "name": "player",
          "type": "address"
        }
      ],
      "name": "getPlayerStats",
      "outputs": [
        {
          "internalType": "uint256",
          "name": "sessionCount",
          "type": "uint256"
        },
        {
          "internalType": "uint256",
          "name": "lastPlayed",
          "type": "uint256"
        }
      ],
      "stateMutability": "view",
      "type": "function"
    },
    {
      "inputs": [
        {
          "internalType": "address",
          "name": "",
          "type": "address"
        }
      ],
      "name": "hasPaidEntry",
      "outputs": [
        {
          "internalType": "bool",
          "name": "",
          "type": "bool"
        }
      ],
      "stateMutability": "view",
      "type": "function"
    },
    {
      "inputs": [],
      "name": "owner",
      "outputs": [
        {
          "internalType": "address",
          "name": "",
          "type": "address"
        }
      ],
      "stateMutability": "view",
      "type": "function"
    },
    {
      "inputs": [],
      "name": "payEntry",
      "outputs": [],
      "stateMutability": "nonpayable",
      "type": "function"
    },
    {
      "inputs": [
        {
          "internalType": "address",
          "name": "",
          "type": "address"
        }
      ],
      "name": "playerLastPlayed",
      "outputs": [
        {
          "internalType": "uint256",
          "name": "",
          "type": "uint256"
        }
      ],
      "stateMutability": "view",
      "type": "function"
    },
    {
      "inputs": [
        {
          "internalType": "address",
          "name": "",
          "type": "address"
        }
      ],
      "name": "playerSessionCount",
      "outputs": [
        {
          "internalType": "uint256",
          "name": "",
          "type": "uint256"
        }
      ],
      "stateMutability": "view",
      "type": "function"
    },
    {
      "inputs": [],
      "name": "recordPlay",
      "outputs": [],
      "stateMutability": "nonpayable",
      "type": "function"
    },
    {
      "inputs": [
        {
          "internalType": "uint256",
          "name": "newFee",
          "type": "uint256"
        }
      ],
      "name": "setEntryFee",
      "outputs": [],
      "stateMutability": "nonpayable",
      "type": "function"
    },
    {
      "inputs": [],
      "name": "totalCollected",
      "outputs": [
        {
          "internalType": "uint256",
          "name": "",
          "type": "uint256"
        }
      ],
      "stateMutability": "view",
      "type": "function"
    },
    {
      "inputs": [],
      "name": "totalSessions",
      "outputs": [
        {
          "internalType": "uint256",
          "name": "",
          "type": "uint256"
        }
      ],
      "stateMutability": "view",
      "type": "function"
    },
    {
      "inputs": [
        {
          "internalType": "address",
          "name": "newOwner",
          "type": "address"
        }
      ],
      "name": "transferOwnership",
      "outputs": [],
      "stateMutability": "nonpayable",
      "type": "function"
    },
    {
      "inputs": [],
      "name": "usdtToken",
      "outputs": [
        {
          "internalType": "address",
          "name": "",
          "type": "address"
        }
      ],
      "stateMutability": "view",
      "type": "function"
    },
    {
      "inputs": [],
      "name": "withdraw",
      "outputs": [],
      "stateMutability": "nonpayable",
      "type": "function"
    }
  ],
  "bytecode": "0x608060405234801561000f575f80fd5b50604051610a17380380610a1783398101604081905261002e9161008b565b6001600160a01b0382166100555760405163d92e233d60e01b815260040160405180910390fd5b5f8054336001600160a01b031991821617909155600180549091166001600160a01b0393909316929092179091556002556100c2565b5f806040838503121561009c575f80fd5b82516001600160a01b03811681146100b2575f80fd5b6020939093015192949293505050565b610948806100cf5f395ff3fe608060405234801561000f575f80fd5b50600436106100fb575f3560e01c80636f5db0b511610093578063b71910a911610063578063b71910a91461026b578063e29eb83614610273578063eb770d0c1461027c578063f2fde38b1461028f575f80fd5b80636f5db0b51461021d578063810df2db146102265780638da5cb5b1461022e578063a98ad46c14610258575f80fd5b806336dd717a116100ce57806336dd717a1461018a5780633ccfd60b146101ac5780634fd66eae146101b45780636e6cfe08146101fe575f80fd5b8063072ea61c146100ff5780630823d5f31461011b57806316ed9eab1461015657806317b9ef8e14610175575b5f80fd5b61010860025481565b6040519081526020015b60405180910390f35b610146610129366004610873565b6001600160a01b03165f9081526003602052604090205460ff1690565b6040519015158152602001610112565b610108610164366004610873565b60066020525f908152604090205481565b610188610183366004610873565b6102a2565b005b610146610198366004610873565b60036020525f908152604090205460ff1681565b610188610328565b6101e96101c2366004610873565b6001600160a01b03165f908152600660209081526040808320546007909252909120549091565b60408051928352602083019190915201610112565b61010861020c366004610873565b60076020525f908152604090205481565b61010860055481565b6101886104c2565b5f54610240906001600160a01b031681565b6040516001600160a01b039091168152602001610112565b600154610240906001600160a01b031681565b6101886106a5565b61010860045481565b61018861028a3660046108a0565b610796565b61018861029d366004610873565b610801565b5f546001600160a01b031633146102cc576040516330cd747160e01b815260040160405180910390fd5b6001600160a01b0381165f8181526003602052604090819020805460ff19169055517f4ed538d1744e8b116f82158145284745d2271a921a2c0f195c9cbe8acf3479b69061031d9042815260200190565b60405180910390a250565b5f546001600160a01b03163314610352576040516330cd747160e01b815260040160405180910390fd5b6001546040516370a0823160e01b81523060048201526001600160a01b03909116905f9082906370a0823190602401602060405180830381865afa15801561039c573d5f803e3d5ffd5b505050506040513d601f19601f820116820180604052508101906103c091906108b7565b9050805f036103e2576040516367e3990d60e01b815260040160405180910390fd5b5f805460405163a9059cbb60e01b81526001600160a01b039182166004820152602481018490529084169063a9059cbb906044016020604051808303815f875af1158015610432573d5f803e3d5ffd5b505050506040513d601f19601f8201168201806040525081019061045691906108ce565b905080610476576040516312171d8360e31b815260040160405180910390fd5b5f54604080518481524260208201526001600160a01b03909216917ffbc3a599b784fe88772fc5abcc07223f64ca0b13acc341f4fb1e46bef0510eb491015b60405180910390a2505050565b335f9081526003602052604090205460ff16156104f257604051630d70a0e360e41b815260040160405180910390fd5b600154604051636eb1769f60e11b81523360048201523060248201526001600160a01b03909116905f90829063dd62ed3e90604401602060405180830381865afa158015610542573d5f803e3d5ffd5b505050506040513d601f19601f8201168201806040525081019061056691906108b7565b905060025481101561059d5760025460405163054365bb60e31b815260048101919091526024810182905260440160405180910390fd5b6002546040516323b872dd60e01b815233600482015230602482015260448101919091525f906001600160a01b038416906323b872dd906064016020604051808303815f875af11580156105f3573d5f803e3d5ffd5b505050506040513d601f19601f8201168201806040525081019061061791906108ce565b905080610637576040516312171d8360e31b815260040160405180910390fd5b335f908152600360205260408120805460ff1916600117905560025460048054919290916106669084906108ed565b90915550506002546040805191825242602083015233917fe19e8727dbf4671249bcf9d7a5aae1289bda1f8fb02a87cea4b35393ad86973a91016104b5565b335f90815260076020526040902054158015906106da5750335f908152600760205260409020546106d790601e6108ed565b42105b156106f8576040516308f5e8db60e01b815260040160405180910390fd5b600160055f82825461070a91906108ed565b9091555050335f90815260066020526040812080546001929061072e9084906108ed565b9091555050335f81815260076020908152604080832042908190556006835292819020546005548251918252928101929092528101919091527fca1598399aedac4b2d62c522b4ea3224e899890427fd9bdd7e7fdcc3065ce1b59060600160405180910390a2565b5f546001600160a01b031633146107c0576040516330cd747160e01b815260040160405180910390fd5b60025460408051918252602082018390527f6a75d918a59da9597a749b7c707f23cfa76552074b43c68a24a21db1c45841f1910160405180910390a1600255565b5f546001600160a01b0316331461082b576040516330cd747160e01b815260040160405180910390fd5b6001600160a01b0381166108525760405163d92e233d60e01b815260040160405180910390fd5b5f80546001600160a01b0319166001600160a01b0392909216919091179055565b5f60208284031215610883575f80fd5b81356001600160a01b0381168114610899575f80fd5b9392505050565b5f602082840312156108b0575f80fd5b5035919050565b5f602082840312156108c7575f80fd5b5051919050565b5f602082840312156108de575f80fd5b81518015158114610899575f80fd5b8082018082111561090c57634e487b7160e01b5f52601160045260245ffd5b9291505056fea26469706673582212209255e12f02f98609fc2c4719154dd5582bd15ed8c2805555bbf68948979a7e5b64736f6c63430008140033",
  "linkReferences": {},
  "deployedLinkReferences": {},
  "immutableReferences": {},
  "inputSourceName": "project/contracts/MemoryMasterEntry.sol",
  "buildInfoId": "solc-0_8_20-2ec0bb643634b630801815328978dcf885bcb2d8"
}