{
  "_format": "hh3-artifact-1",
  "contractName": "MemoryMasterEntry",
  "sourceName": "contracts/MemoryMasterEntry.sol",
  "abi": [
    {
      "inputs": [
        {
          "internalType": "address",
          "name": "_usdtToken",
          "type": "address"
        },
        {
          "internalType": "uint256",
          "name": "_entryFee",
          "type": "uint256"
        }
      ],
      "stateMutability": "nonpayable",
      "type": "constructor"
    },
    {
      "inputs": [],
      "name": "AlreadyPaid",
      "type": "error"
    },
    {
      "inputs": [
        {
          "internalType": "uint256",
          "name": "required",
          "type": "uint256"
        },
        {
          "internalType": "uint256",
          "name": "actual",
          "type": "uint256"
        }
      ],
      "name": "InsufficientAllowance",
      "type": "error"
    },
    {
      "inputs": [],
      "name": "NoFundsToWithdraw",
      "type": "error"
    },
    {
      "inputs": [],
      "name": "NotOwner",
      "type": "error"
    },
    {
      "inputs": [],
      "name": "TransferFailed",
      "type": "error"
    },
    {
      "inputs": [],
      "name": "ZeroAddress",
      "type": "error"
    },
    {
      "anonymous": false,
      "inputs": [
        {
          "indexed": true,
          "internalType": "address",
          "name": "player",
          "type": "address"
        },
        {
          "indexed": false,
          "internalType": "uint256",
          "name": "timestamp",
          "type": "uint256"
        }
      ],
      "name": "EntryConsumed",
      "type": "event"
    },
    {
      "anonymous": false,
      "inputs": [
        {
          "indexed": false,
          "internalType": "uint256",
          "name": "oldFee",
          "type": "uint256"
        },
        {
          "indexed": false,
          "internalType": "uint256",
          "name": "newFee",
          "type": "uint256"
        }
      ],
      "name": "EntryFeeUpdated",
      "type": "event"
    },
    {
      "anonymous": false,
      "inputs": [
        {
          "indexed": true,
          "internalType": "address",
          "name": "player",
          "type": "address"
        },
        {
          "indexed": false,
          "internalType": "uint256",
          "name": "amount",
          "type": "uint256"
        },
        {
          "indexed": false,
          "internalType": "uint256",
          "name": "timestamp",
          "type": "uint256"
        }
      ],
      "name": "EntryPaid",
      "type": "event"
    },
    {
      "anonymous": false,
      "inputs": [
        {
          "indexed": true,
          "internalType": "address",
          "name": "owner",
          "type": "address"
        },
        {
          "indexed": false,
          "internalType": "uint256",
          "name": "amount",
          "type": "uint256"
        },
        {
          "indexed": false,
          "internalType": "uint256",
          "name": "timestamp",
          "type": "uint256"
        }
      ],
      "name": "FundsWithdrawn",
      "type": "event"
    },
    {
      "inputs": [
        {
          "internalType": "address",
          "name": "player",
          "type": "address"
        }
      ],
      "name": "canPlay",
      "outputs": [
        {
          "internalType": "bool",
          "name": "",
          "type": "bool"
        }
      ],
      "stateMutability": "view",
      "type": "function"
    },
    {
      "inputs": [
        {
          "internalType": "address",
          "name": "player",
          "type": "address"
        }
      ],
      "name": "consumeEntry",
      "outputs": [],
      "stateMutability": "nonpayable",
      "type": "function"
    },
    {
      "inputs": [],
      "name": "entryFee",
      "outputs": [
        {
          "internalType": "uint256",
          "name": "",
          "type": "uint256"
        }
      ],
      "stateMutability": "view",
      "type": "function"
    },
    {
      "inputs": [
        {
          "internalType": "address",
          "name": "",
          "type": "address"
        }
      ],
      "name": "hasPaidEntry",
      "outputs": [
        {
          "internalType": "bool",
          "name": "",
          "type": "bool"
        }
      ],
      "stateMutability": "view",
      "type": "function"
    },
    {
      "inputs": [],
      "name": "owner",
      "outputs": [
        {
          "internalType": "address",
          "name": "",
          "type": "address"
        }
      ],
      "stateMutability": "view",
      "type": "function"
    },
    {
      "inputs": [],
      "name": "payEntry",
      "outputs": [],
      "stateMutability": "nonpayable",
      "type": "function"
    },
    {
      "inputs": [
        {
          "internalType": "uint256",
          "name": "newFee",
          "type": "uint256"
        }
      ],
      "name": "setEntryFee",
      "outputs": [],
      "stateMutability": "nonpayable",
      "type": "function"
    },
    {
      "inputs": [],
      "name": "totalCollected",
      "outputs": [
        {
          "internalType": "uint256",
          "name": "",
          "type": "uint256"
        }
      ],
      "stateMutability": "view",
      "type": "function"
    },
    {
      "inputs": [
        {
          "internalType": "address",
          "name": "newOwner",
          "type": "address"
        }
      ],
      "name": "transferOwnership",
      "outputs": [],
      "stateMutability": "nonpayable",
      "type": "function"
    },
    {
      "inputs": [],
      "name": "usdtToken",
      "outputs": [
        {
          "internalType": "address",
          "name": "",
          "type": "address"
        }
      ],
      "stateMutability": "view",
      "type": "function"
    },
    {
      "inputs": [],
      "name": "withdraw",
      "outputs": [],
      "stateMutability": "nonpayable",
      "type": "function"
    }
  ],
  "bytecode": "0x608060405234801561000f575f80fd5b5060405161083838038061083883398101604081905261002e9161008b565b6001600160a01b0382166100555760405163d92e233d60e01b815260040160405180910390fd5b5f8054336001600160a01b031991821617909155600180549091166001600160a01b0393909316929092179091556002556100c2565b5f806040838503121561009c575f80fd5b82516001600160a01b03811681146100b2575f80fd5b6020939093015192949293505050565b610769806100cf5f395ff3fe608060405234801561000f575f80fd5b50600436106100a6575f3560e01c8063810df2db1161006e578063810df2db146101405780638da5cb5b14610148578063a98ad46c14610172578063e29eb83614610185578063eb770d0c1461018e578063f2fde38b146101a1575f80fd5b8063072ea61c146100aa5780630823d5f3146100c657806317b9ef8e1461010157806336dd717a146101165780633ccfd60b14610138575b5f80fd5b6100b360025481565b6040519081526020015b60405180910390f35b6100f16100d4366004610694565b6001600160a01b03165f9081526003602052604090205460ff1690565b60405190151581526020016100bd565b61011461010f366004610694565b6101b4565b005b6100f1610124366004610694565b60036020525f908152604090205460ff1681565b61011461023a565b6101146103d4565b5f5461015a906001600160a01b031681565b6040516001600160a01b0390911681526020016100bd565b60015461015a906001600160a01b031681565b6100b360045481565b61011461019c3660046106c1565b6105b7565b6101146101af366004610694565b610622565b5f546001600160a01b031633146101de576040516330cd747160e01b815260040160405180910390fd5b6001600160a01b0381165f8181526003602052604090819020805460ff19169055517f4ed538d1744e8b116f82158145284745d2271a921a2c0f195c9cbe8acf3479b69061022f9042815260200190565b60405180910390a250565b5f546001600160a01b03163314610264576040516330cd747160e01b815260040160405180910390fd5b6001546040516370a0823160e01b81523060048201526001600160a01b03909116905f9082906370a0823190602401602060405180830381865afa1580156102ae573d5f803e3d5ffd5b505050506040513d601f19601f820116820180604052508101906102d291906106d8565b9050805f036102f4576040516367e3990d60e01b815260040160405180910390fd5b5f805460405163a9059cbb60e01b81526001600160a01b039182166004820152602481018490529084169063a9059cbb906044016020604051808303815f875af1158015610344573d5f803e3d5ffd5b505050506040513d601f19601f8201168201806040525081019061036891906106ef565b905080610388576040516312171d8360e31b815260040160405180910390fd5b5f54604080518481524260208201526001600160a01b03909216917ffbc3a599b784fe88772fc5abcc07223f64ca0b13acc341f4fb1e46bef0510eb491015b60405180910390a2505050565b335f9081526003602052604090205460ff161561040457604051630d70a0e360e41b815260040160405180910390fd5b600154604051636eb1769f60e11b81523360048201523060248201526001600160a01b03909116905f90829063dd62ed3e90604401602060405180830381865afa158015610454573d5f803e3d5ffd5b505050506040513d601f19601f8201168201806040525081019061047891906106d8565b90506002548110156104af5760025460405163054365bb60e31b815260048101919091526024810182905260440160405180910390fd5b6002546040516323b872dd60e01b815233600482015230602482015260448101919091525f906001600160a01b038416906323b872dd906064016020604051808303815f875af1158015610505573d5f803e3d5ffd5b505050506040513d601f19601f8201168201806040525081019061052991906106ef565b905080610549576040516312171d8360e31b815260040160405180910390fd5b335f908152600360205260408120805460ff19166001179055600254600480549192909161057890849061070e565b90915550506002546040805191825242602083015233917fe19e8727dbf4671249bcf9d7a5aae1289bda1f8fb02a87cea4b35393ad86973a91016103c7565b5f546001600160a01b031633146105e1576040516330cd747160e01b815260040160405180910390fd5b60025460408051918252602082018390527f6a75d918a59da9597a749b7c707f23cfa76552074b43c68a24a21db1c45841f1910160405180910390a1600255565b5f546001600160a01b0316331461064c576040516330cd747160e01b815260040160405180910390fd5b6001600160a01b0381166106735760405163d92e233d60e01b815260040160405180910390fd5b5f80546001600160a01b0319166001600160a01b0392909216919091179055565b5f602082840312156106a4575f80fd5b81356001600160a01b03811681146106ba575f80fd5b9392505050565b5f602082840312156106d1575f80fd5b5035919050565b5f602082840312156106e8575f80fd5b5051919050565b5f602082840312156106ff575f80fd5b815180151581146106ba575f80fd5b8082018082111561072d57634e487b7160e01b5f52601160045260245ffd5b9291505056fea2646970667358221220062a1665916fc391e96142587593caa17bcdcf467301bfd4ab812255909b9a1d64736f6c63430008140033",
  "linkReferences": {},
  "deployedLinkReferences": {},
  "immutableReferences": {},
  "inputSourceName": "project/contracts/MemoryMasterEntry.sol",
  "buildInfoId": "solc-0_8_20-963be09820a6821b2e7314db48aabdf786ba1963"
}